{
  "contractName": "MedicalRecords",
  "abi": [
    {
      "inputs": [
        {
          "internalType": "uint256",
          "name": "",
          "type": "uint256"
        }
      ],
      "name": "records",
      "outputs": [
        {
          "internalType": "int256",
          "name": "client",
          "type": "int256"
        },
        {
          "internalType": "uint256",
          "name": "hospital",
          "type": "uint256"
        },
        {
          "internalType": "uint256",
          "name": "doctor",
          "type": "uint256"
        },
        {
          "internalType": "string",
          "name": "value",
          "type": "string"
        },
        {
          "internalType": "uint256",
          "name": "timestamp",
          "type": "uint256"
        }
      ],
      "stateMutability": "view",
      "type": "function",
      "constant": true
    },
    {
      "inputs": [
        {
          "internalType": "int256",
          "name": "_client",
          "type": "int256"
        },
        {
          "internalType": "uint256",
          "name": "_hospital",
          "type": "uint256"
        },
        {
          "internalType": "uint256",
          "name": "_doctor",
          "type": "uint256"
        },
        {
          "internalType": "string",
          "name": "_value",
          "type": "string"
        }
      ],
      "name": "setRecord",
      "outputs": [],
      "stateMutability": "nonpayable",
      "type": "function"
    },
    {
      "inputs": [
        {
          "internalType": "int256",
          "name": "_client",
          "type": "int256"
        }
      ],
      "name": "getRecordsByID",
      "outputs": [
        {
          "components": [
            {
              "internalType": "int256",
              "name": "client",
              "type": "int256"
            },
            {
              "internalType": "uint256",
              "name": "hospital",
              "type": "uint256"
            },
            {
              "internalType": "uint256",
              "name": "doctor",
              "type": "uint256"
            },
            {
              "internalType": "string",
              "name": "value",
              "type": "string"
            },
            {
              "internalType": "uint256",
              "name": "timestamp",
              "type": "uint256"
            }
          ],
          "internalType": "struct MedicalRecords.RecordStruct[]",
          "name": "",
          "type": "tuple[]"
        }
      ],
      "stateMutability": "view",
      "type": "function",
      "constant": true
    }
  ],
  "bytecode": "0x60806040526000805534801561001457600080fd5b50610b43806100246000396000f3fe608060405234801561001057600080fd5b50600436106100415760003560e01c80631325fbfb1461004657806334461067146100625780633528ffc714610096575b600080fd5b610060600480360381019061005b9190610666565b6100c6565b005b61007c600480360381019061007791906106e9565b610166565b60405161008d9594939291906107bc565b60405180910390f35b6100b060048036038101906100ab9190610816565b610224565b6040516100bd91906109e3565b60405180910390f35b6040518060a00160405280858152602001848152602001838152602001828152602001428152506001600080548152602001908152602001600020600082015181600001556020820151816001015560408201518160020155606082015181600301908051906020019061013b9291906103ce565b506080820151816004015590505060008081548092919061015b90610a34565b919050555050505050565b600160205280600052604060002060009150905080600001549080600101549080600201549080600301805461019b90610aac565b80601f01602080910402602001604051908101604052809291908181526020018280546101c790610aac565b80156102145780601f106101e957610100808354040283529160200191610214565b820191906000526020600020905b8154815290600101906020018083116101f757829003601f168201915b5050505050908060040154905085565b60606000805467ffffffffffffffff8111156102435761024261053b565b5b60405190808252806020026020018201604052801561027c57816020015b610269610454565b8152602001906001900390816102615790505b5090506000805b6000548110156103c35784600160008381526020019081526020016000206000015414156103b057600160008281526020019081526020016000206040518060a00160405290816000820154815260200160018201548152602001600282015481526020016003820180546102f790610aac565b80601f016020809104026020016040519081016040528092919081815260200182805461032390610aac565b80156103705780601f1061034557610100808354040283529160200191610370565b820191906000526020600020905b81548152906001019060200180831161035357829003601f168201915b5050505050815260200160048201548152505083838151811061039657610395610ade565b5b602002602001018190525081806103ac90610a34565b9250505b80806103bb90610a34565b915050610283565b508192505050919050565b8280546103da90610aac565b90600052602060002090601f0160209004810192826103fc5760008555610443565b82601f1061041557805160ff1916838001178555610443565b82800160010185558215610443579182015b82811115610442578251825591602001919060010190610427565b5b5090506104509190610483565b5090565b6040518060a0016040528060008152602001600081526020016000815260200160608152602001600081525090565b5b8082111561049c576000816000905550600101610484565b5090565b6000604051905090565b600080fd5b600080fd5b6000819050919050565b6104c7816104b4565b81146104d257600080fd5b50565b6000813590506104e4816104be565b92915050565b6000819050919050565b6104fd816104ea565b811461050857600080fd5b50565b60008135905061051a816104f4565b92915050565b600080fd5b600080fd5b6000601f19601f8301169050919050565b7f4e487b7100000000000000000000000000000000000000000000000000000000600052604160045260246000fd5b6105738261052a565b810181811067ffffffffffffffff821117156105925761059161053b565b5b80604052505050565b60006105a56104a0565b90506105b1828261056a565b919050565b600067ffffffffffffffff8211156105d1576105d061053b565b5b6105da8261052a565b9050602081019050919050565b82818337600083830152505050565b6000610609610604846105b6565b61059b565b90508281526020810184848401111561062557610624610525565b5b6106308482856105e7565b509392505050565b600082601f83011261064d5761064c610520565b5b813561065d8482602086016105f6565b91505092915050565b600080600080608085870312156106805761067f6104aa565b5b600061068e878288016104d5565b945050602061069f8782880161050b565b93505060406106b08782880161050b565b925050606085013567ffffffffffffffff8111156106d1576106d06104af565b5b6106dd87828801610638565b91505092959194509250565b6000602082840312156106ff576106fe6104aa565b5b600061070d8482850161050b565b91505092915050565b61071f816104b4565b82525050565b61072e816104ea565b82525050565b600081519050919050565b600082825260208201905092915050565b60005b8381101561076e578082015181840152602081019050610753565b8381111561077d576000848401525b50505050565b600061078e82610734565b610798818561073f565b93506107a8818560208601610750565b6107b18161052a565b840191505092915050565b600060a0820190506107d16000830188610716565b6107de6020830187610725565b6107eb6040830186610725565b81810360608301526107fd8185610783565b905061080c6080830184610725565b9695505050505050565b60006020828403121561082c5761082b6104aa565b5b600061083a848285016104d5565b91505092915050565b600081519050919050565b600082825260208201905092915050565b6000819050602082019050919050565b610878816104b4565b82525050565b610887816104ea565b82525050565b600082825260208201905092915050565b60006108a982610734565b6108b3818561088d565b93506108c3818560208601610750565b6108cc8161052a565b840191505092915050565b600060a0830160008301516108ef600086018261086f565b506020830151610902602086018261087e565b506040830151610915604086018261087e565b506060830151848203606086015261092d828261089e565b9150506080830151610942608086018261087e565b508091505092915050565b600061095983836108d7565b905092915050565b6000602082019050919050565b600061097982610843565b610983818561084e565b9350836020820285016109958561085f565b8060005b858110156109d157848403895281516109b2858261094d565b94506109bd83610961565b925060208a01995050600181019050610999565b50829750879550505050505092915050565b600060208201905081810360008301526109fd818461096e565b905092915050565b7f4e487b7100000000000000000000000000000000000000000000000000000000600052601160045260246000fd5b6000610a3f826104ea565b91507fffffffffffffffffffffffffffffffffffffffffffffffffffffffffffffffff821415610a7257610a71610a05565b5b600182019050919050565b7f4e487b7100000000000000000000000000000000000000000000000000000000600052602260045260246000fd5b60006002820490506001821680610ac457607f821691505b60208210811415610ad857610ad7610a7d565b5b50919050565b7f4e487b7100000000000000000000000000000000000000000000000000000000600052603260045260246000fdfea2646970667358221220a4f21af93da9a049eb54c3b9bd5f096b2f919eb4f4fb61d8486c5be28619f9a464736f6c634300080a0033",
  "immutableReferences": {},
  "source": "// SPDX-License-Identifier: MIT\npragma solidity ^0.8.6;\n\ncontract MedicalRecords {\n    \n    uint recordsCounter = 0;\n\n    struct RecordStruct {\n        int client; // Client ID\n        uint hospital;\n        uint doctor;\n        string value;\n        uint256 timestamp;\n    }\n\n    mapping (uint256 => RecordStruct) public records;\n\n    function setRecord(int _client, uint _hospital, uint _doctor, string memory _value) public {\n        records[recordsCounter] = RecordStruct(_client, _hospital, _doctor, _value, block.timestamp);\n        recordsCounter++;\n    }\n\n    function getRecordsByID(int _client) public view returns (RecordStruct[] memory) {\n        RecordStruct[] memory response = new RecordStruct[](recordsCounter);\n        uint counter = 0;\n        for (uint256 i = 0; i < recordsCounter; i++) {\n            if (records[i].client == _client) {\n                response[counter] = records[i];\n                counter++;\n            }\n        }\n        return response;\n    }\n}\n",
  "sourcePath": "C:\\Users\\LENOVO\\Desktop\\Solidity\\Market\\contracts\\MedicalRecords.sol",
  "compiler": {
    "name": "solc",
    "version": "0.8.10+commit.fc410830.Emscripten.clang"
  },
  "schemaVersion": "3.4.3",
  "updatedAt": "2021-11-10T23:06:53.449Z",
  "networkType": "ethereum",
  "devdoc": {
    "kind": "dev",
    "methods": {},
    "version": 1
  },
  "userdoc": {
    "kind": "user",
    "methods": {},
    "version": 1
  }
}